{"abi":[{"type":"constructor","inputs":[],"stateMutability":"nonpayable"},{"type":"function","name":"approve","inputs":[{"name":"to","type":"address","internalType":"address"},{"name":"tokenId","type":"uint256","internalType":"uint256"}],"outputs":[],"stateMutability":"nonpayable"},{"type":"function","name":"balanceOf","inputs":[{"name":"owner","type":"address","internalType":"address"}],"outputs":[{"name":"","type":"uint256","internalType":"uint256"}],"stateMutability":"view"},{"type":"function","name":"getApproved","inputs":[{"name":"tokenId","type":"uint256","internalType":"uint256"}],"outputs":[{"name":"","type":"address","internalType":"address"}],"stateMutability":"view"},{"type":"function","name":"isApprovedForAll","inputs":[{"name":"owner","type":"address","internalType":"address"},{"name":"operator","type":"address","internalType":"address"}],"outputs":[{"name":"","type":"bool","internalType":"bool"}],"stateMutability":"view"},{"type":"function","name":"mint","inputs":[{"name":"to","type":"address","internalType":"address"},{"name":"tokenId","type":"uint256","internalType":"uint256"}],"outputs":[],"stateMutability":"nonpayable"},{"type":"function","name":"name","inputs":[],"outputs":[{"name":"","type":"string","internalType":"string"}],"stateMutability":"view"},{"type":"function","name":"ownerOf","inputs":[{"name":"tokenId","type":"uint256","internalType":"uint256"}],"outputs":[{"name":"","type":"address","internalType":"address"}],"stateMutability":"view"},{"type":"function","name":"safeTransferFrom","inputs":[{"name":"from","type":"address","internalType":"address"},{"name":"to","type":"address","internalType":"address"},{"name":"tokenId","type":"uint256","internalType":"uint256"}],"outputs":[],"stateMutability":"nonpayable"},{"type":"function","name":"safeTransferFrom","inputs":[{"name":"from","type":"address","internalType":"address"},{"name":"to","type":"address","internalType":"address"},{"name":"tokenId","type":"uint256","internalType":"uint256"},{"name":"data","type":"bytes","internalType":"bytes"}],"outputs":[],"stateMutability":"pure"},{"type":"function","name":"setApprovalForAll","inputs":[{"name":"operator","type":"address","internalType":"address"},{"name":"approved","type":"bool","internalType":"bool"}],"outputs":[],"stateMutability":"nonpayable"},{"type":"function","name":"supportsInterface","inputs":[{"name":"interfaceId","type":"bytes4","internalType":"bytes4"}],"outputs":[{"name":"","type":"bool","internalType":"bool"}],"stateMutability":"view"},{"type":"function","name":"symbol","inputs":[],"outputs":[{"name":"","type":"string","internalType":"string"}],"stateMutability":"view"},{"type":"function","name":"tokenURI","inputs":[{"name":"tokenId","type":"uint256","internalType":"uint256"}],"outputs":[{"name":"","type":"string","internalType":"string"}],"stateMutability":"view"},{"type":"function","name":"transferFrom","inputs":[{"name":"from","type":"address","internalType":"address"},{"name":"to","type":"address","internalType":"address"},{"name":"tokenId","type":"uint256","internalType":"uint256"}],"outputs":[],"stateMutability":"pure"},{"type":"event","name":"Approval","inputs":[{"name":"owner","type":"address","indexed":true,"internalType":"address"},{"name":"approved","type":"address","indexed":true,"internalType":"address"},{"name":"tokenId","type":"uint256","indexed":true,"internalType":"uint256"}],"anonymous":false},{"type":"event","name":"ApprovalForAll","inputs":[{"name":"owner","type":"address","indexed":true,"internalType":"address"},{"name":"operator","type":"address","indexed":true,"internalType":"address"},{"name":"approved","type":"bool","indexed":false,"internalType":"bool"}],"anonymous":false},{"type":"event","name":"Transfer","inputs":[{"name":"from","type":"address","indexed":true,"internalType":"address"},{"name":"to","type":"address","indexed":true,"internalType":"address"},{"name":"tokenId","type":"uint256","indexed":true,"internalType":"uint256"}],"anonymous":false},{"type":"error","name":"ERC721IncorrectOwner","inputs":[{"name":"sender","type":"address","internalType":"address"},{"name":"tokenId","type":"uint256","internalType":"uint256"},{"name":"owner","type":"address","internalType":"address"}]},{"type":"error","name":"ERC721InsufficientApproval","inputs":[{"name":"operator","type":"address","internalType":"address"},{"name":"tokenId","type":"uint256","internalType":"uint256"}]},{"type":"error","name":"ERC721InvalidApprover","inputs":[{"name":"approver","type":"address","internalType":"address"}]},{"type":"error","name":"ERC721InvalidOperator","inputs":[{"name":"operator","type":"address","internalType":"address"}]},{"type":"error","name":"ERC721InvalidOwner","inputs":[{"name":"owner","type":"address","internalType":"address"}]},{"type":"error","name":"ERC721InvalidReceiver","inputs":[{"name":"receiver","type":"address","internalType":"address"}]},{"type":"error","name":"ERC721InvalidSender","inputs":[{"name":"sender","type":"address","internalType":"address"}]},{"type":"error","name":"ERC721NonexistentToken","inputs":[{"name":"tokenId","type":"uint256","internalType":"uint256"}]}],"bytecode":{"object":"0x608060405234801561001057600080fd5b506040518060400160405280600e81526020016d13585d195b585d195cdcd854d09560921b8152506040518060400160405280600681526020016513551354d09560d21b8152508160009081610066919061011a565b506001610073828261011a565b5050506101d8565b634e487b7160e01b600052604160045260246000fd5b600181811c908216806100a557607f821691505b6020821081036100c557634e487b7160e01b600052602260045260246000fd5b50919050565b601f82111561011557806000526020600020601f840160051c810160208510156100f25750805b601f840160051c820191505b8181101561011257600081556001016100fe565b50505b505050565b81516001600160401b038111156101335761013361007b565b610147816101418454610091565b846100cb565b6020601f82116001811461017b57600083156101635750848201515b600019600385901b1c1916600184901b178455610112565b600084815260208120601f198516915b828110156101ab578785015182556020948501946001909201910161018b565b50848210156101c95786840151600019600387901b60f8161c191681555b50505050600190811b01905550565b610d81806101e76000396000f3fe608060405234801561001057600080fd5b50600436106100ea5760003560e01c80636352211e1161008c578063a22cb46511610066578063a22cb465146101e1578063b88d4fde146101f4578063c87b56dd14610202578063e985e9c51461021557600080fd5b80636352211e146101a557806370a08231146101b857806395d89b41146101d957600080fd5b8063095ea7b3116100c8578063095ea7b31461015757806323b872dd1461016c57806340c10f191461017f57806342842e0e1461019257600080fd5b806301ffc9a7146100ef57806306fdde0314610117578063081812fc1461012c575b600080fd5b6101026100fd366004610a41565b610228565b60405190151581526020015b60405180910390f35b61011f61027a565b60405161010e9190610a8f565b61013f61013a366004610ac2565b61030c565b6040516001600160a01b03909116815260200161010e565b61016a610165366004610af7565b610335565b005b61016a61017a366004610b21565b610344565b61016a61018d366004610af7565b61038e565b61016a6101a0366004610b21565b610398565b61013f6101b3366004610ac2565b6103b3565b6101cb6101c6366004610b5e565b6103be565b60405190815260200161010e565b61011f610406565b61016a6101ef366004610b79565b610415565b61016a61017a366004610bcb565b61011f610210366004610ac2565b610420565b610102610223366004610caf565b610495565b60006001600160e01b031982166380ac58cd60e01b148061025957506001600160e01b03198216635b5e139f60e01b145b8061027457506301ffc9a760e01b6001600160e01b03198316145b92915050565b60606000805461028990610ce2565b80601f01602080910402602001604051908101604052809291908181526020018280546102b590610ce2565b80156103025780601f106102d757610100808354040283529160200191610302565b820191906000526020600020905b8154815290600101906020018083116102e557829003601f168201915b5050505050905090565b6000610317826104c3565b506000828152600460205260409020546001600160a01b0316610274565b6103408282336104fc565b5050565b60405162461bcd60e51b81526020600482015260156024820152742a3930b739b332b91034b9903337b93134b23232b760591b60448201526064015b60405180910390fd5b505050565b6103408282610509565b61038983838360405180602001604052806000815250610344565b6000610274826104c3565b60006001600160a01b0382166103ea576040516322718ad960e21b815260006004820152602401610380565b506001600160a01b031660009081526003602052604090205490565b60606001805461028990610ce2565b61034033838361056e565b606061042b826104c3565b50600061044360408051602081019091526000815290565b90506000815111610463576040518060200160405280600081525061048e565b8061046d8461060d565b60405160200161047e929190610d1c565b6040516020818303038152906040525b9392505050565b6001600160a01b03918216600090815260056020908152604080832093909416825291909152205460ff1690565b6000818152600260205260408120546001600160a01b03168061027457604051637e27328960e01b815260048101849052602401610380565b61038983838360016106a0565b6001600160a01b03821661053357604051633250574960e11b815260006004820152602401610380565b6000610541838360006107a6565b90506001600160a01b03811615610389576040516339e3563760e11b815260006004820152602401610380565b6001600160a01b0382166105a057604051630b61174360e31b81526001600160a01b0383166004820152602401610380565b6001600160a01b03838116600081815260056020908152604080832094871680845294825291829020805460ff191686151590811790915591519182527f17307eab39ab6107e8899845ad3d59bd9653f200f220920489ca2b5937696c31910160405180910390a3505050565b6060600061061a8361089f565b600101905060008167ffffffffffffffff81111561063a5761063a610bb5565b6040519080825280601f01601f191660200182016040528015610664576020820181803683370190505b5090508181016020015b600019016f181899199a1a9b1b9c1cb0b131b232b360811b600a86061a8153600a850494508461066e57509392505050565b80806106b457506001600160a01b03821615155b156107765760006106c4846104c3565b90506001600160a01b038316158015906106f05750826001600160a01b0316816001600160a01b031614155b801561070357506107018184610495565b155b1561072c5760405163a9fbf51f60e01b81526001600160a01b0384166004820152602401610380565b81156107745783856001600160a01b0316826001600160a01b03167f8c5be1e5ebec7d5bd14f71427d1e84f3dd0314c0f7b2291e5b200ac8c7c3b92560405160405180910390a45b505b5050600090815260046020526040902080546001600160a01b0319166001600160a01b0392909216919091179055565b6000828152600260205260408120546001600160a01b03908116908316156107d3576107d3818486610977565b6001600160a01b03811615610811576107f06000856000806106a0565b6001600160a01b038116600090815260036020526040902080546000190190555b6001600160a01b03851615610840576001600160a01b0385166000908152600360205260409020805460010190555b60008481526002602052604080822080546001600160a01b0319166001600160a01b0389811691821790925591518793918516917fddf252ad1be2c89b69c2b068fc378daa952ba7f163c4a11628f55a4df523b3ef91a4949350505050565b60008072184f03e93ff9f4daa797ed6e38ed64bf6a1f0160401b83106108de5772184f03e93ff9f4daa797ed6e38ed64bf6a1f0160401b830492506040015b6d04ee2d6d415b85acef8100000000831061090a576d04ee2d6d415b85acef8100000000830492506020015b662386f26fc10000831061092857662386f26fc10000830492506010015b6305f5e1008310610940576305f5e100830492506008015b612710831061095457612710830492506004015b60648310610966576064830492506002015b600a83106102745760010192915050565b6109828383836109db565b610389576001600160a01b0383166109b057604051637e27328960e01b815260048101829052602401610380565b60405163177e802f60e01b81526001600160a01b038316600482015260248101829052604401610380565b60006001600160a01b03831615801590610a395750826001600160a01b0316846001600160a01b03161480610a155750610a158484610495565b80610a3957506000828152600460205260409020546001600160a01b038481169116145b949350505050565b600060208284031215610a5357600080fd5b81356001600160e01b03198116811461048e57600080fd5b60005b83811015610a86578181015183820152602001610a6e565b50506000910152565b6020815260008251806020840152610aae816040850160208701610a6b565b601f01601f19169190910160400192915050565b600060208284031215610ad457600080fd5b5035919050565b80356001600160a01b0381168114610af257600080fd5b919050565b60008060408385031215610b0a57600080fd5b610b1383610adb565b946020939093013593505050565b600080600060608486031215610b3657600080fd5b610b3f84610adb565b9250610b4d60208501610adb565b929592945050506040919091013590565b600060208284031215610b7057600080fd5b61048e82610adb565b60008060408385031215610b8c57600080fd5b610b9583610adb565b915060208301358015158114610baa57600080fd5b809150509250929050565b634e487b7160e01b600052604160045260246000fd5b60008060008060808587031215610be157600080fd5b610bea85610adb565b9350610bf860208601610adb565b925060408501359150606085013567ffffffffffffffff811115610c1b57600080fd5b8501601f81018713610c2c57600080fd5b803567ffffffffffffffff811115610c4657610c46610bb5565b604051601f8201601f19908116603f0116810167ffffffffffffffff81118282101715610c7557610c75610bb5565b604052818152828201602001891015610c8d57600080fd5b8160208401602083013760006020838301015280935050505092959194509250565b60008060408385031215610cc257600080fd5b610ccb83610adb565b9150610cd960208401610adb565b90509250929050565b600181811c90821680610cf657607f821691505b602082108103610d1657634e487b7160e01b600052602260045260246000fd5b50919050565b60008351610d2e818460208801610a6b565b835190830190610d42818360208801610a6b565b0194935050505056fea26469706673582212200ecb0e7fdcce858928859d17ea73e0df1e09140218423d3ad593e1c5a6eb7eb864736f6c634300081b0033","linkReferences":{}},"methodIdentifiers":{"approve(address,uint256)":"095ea7b3","balanceOf(address)":"70a08231","getApproved(uint256)":"081812fc","isApprovedForAll(address,address)":"e985e9c5","mint(address,uint256)":"40c10f19","name()":"06fdde03","ownerOf(uint256)":"6352211e","safeTransferFrom(address,address,uint256)":"42842e0e","safeTransferFrom(address,address,uint256,bytes)":"b88d4fde","setApprovalForAll(address,bool)":"a22cb465","supportsInterface(bytes4)":"01ffc9a7","symbol()":"95d89b41","tokenURI(uint256)":"c87b56dd","transferFrom(address,address,uint256)":"23b872dd"},"id":0}