{"abi":[{"type":"constructor","inputs":[{"name":"baseURI","type":"string","internalType":"string"},{"name":"initialOwner","type":"address","internalType":"address"}],"stateMutability":"nonpayable"},{"type":"function","name":"balanceOf","inputs":[{"name":"account","type":"address","internalType":"address"},{"name":"id","type":"uint256","internalType":"uint256"}],"outputs":[{"name":"","type":"uint256","internalType":"uint256"}],"stateMutability":"view"},{"type":"function","name":"balanceOfBatch","inputs":[{"name":"accounts","type":"address[]","internalType":"address[]"},{"name":"ids","type":"uint256[]","internalType":"uint256[]"}],"outputs":[{"name":"","type":"uint256[]","internalType":"uint256[]"}],"stateMutability":"view"},{"type":"function","name":"exists","inputs":[{"name":"id","type":"uint256","internalType":"uint256"}],"outputs":[{"name":"","type":"bool","internalType":"bool"}],"stateMutability":"view"},{"type":"function","name":"isApprovedForAll","inputs":[{"name":"account","type":"address","internalType":"address"},{"name":"operator","type":"address","internalType":"address"}],"outputs":[{"name":"","type":"bool","internalType":"bool"}],"stateMutability":"view"},{"type":"function","name":"mint","inputs":[{"name":"to","type":"address","internalType":"address"},{"name":"id","type":"uint256","internalType":"uint256"},{"name":"amount","type":"uint256","internalType":"uint256"},{"name":"data","type":"bytes","internalType":"bytes"}],"outputs":[],"stateMutability":"nonpayable"},{"type":"function","name":"mintBatch","inputs":[{"name":"to","type":"address","internalType":"address"},{"name":"ids","type":"uint256[]","internalType":"uint256[]"},{"name":"amounts","type":"uint256[]","internalType":"uint256[]"},{"name":"data","type":"bytes","internalType":"bytes"}],"outputs":[],"stateMutability":"nonpayable"},{"type":"function","name":"owner","inputs":[],"outputs":[{"name":"","type":"address","internalType":"address"}],"stateMutability":"view"},{"type":"function","name":"renounceOwnership","inputs":[],"outputs":[],"stateMutability":"nonpayable"},{"type":"function","name":"safeBatchTransferFrom","inputs":[{"name":"from","type":"address","internalType":"address"},{"name":"to","type":"address","internalType":"address"},{"name":"ids","type":"uint256[]","internalType":"uint256[]"},{"name":"values","type":"uint256[]","internalType":"uint256[]"},{"name":"data","type":"bytes","internalType":"bytes"}],"outputs":[],"stateMutability":"nonpayable"},{"type":"function","name":"safeTransferFrom","inputs":[{"name":"from","type":"address","internalType":"address"},{"name":"to","type":"address","internalType":"address"},{"name":"id","type":"uint256","internalType":"uint256"},{"name":"value","type":"uint256","internalType":"uint256"},{"name":"data","type":"bytes","internalType":"bytes"}],"outputs":[],"stateMutability":"nonpayable"},{"type":"function","name":"setApprovalForAll","inputs":[{"name":"operator","type":"address","internalType":"address"},{"name":"approved","type":"bool","internalType":"bool"}],"outputs":[],"stateMutability":"nonpayable"},{"type":"function","name":"supportsInterface","inputs":[{"name":"interfaceId","type":"bytes4","internalType":"bytes4"}],"outputs":[{"name":"","type":"bool","internalType":"bool"}],"stateMutability":"view"},{"type":"function","name":"totalSupply","inputs":[],"outputs":[{"name":"","type":"uint256","internalType":"uint256"}],"stateMutability":"view"},{"type":"function","name":"totalSupply","inputs":[{"name":"id","type":"uint256","internalType":"uint256"}],"outputs":[{"name":"","type":"uint256","internalType":"uint256"}],"stateMutability":"view"},{"type":"function","name":"transferOwnership","inputs":[{"name":"newOwner","type":"address","internalType":"address"}],"outputs":[],"stateMutability":"nonpayable"},{"type":"function","name":"uri","inputs":[{"name":"id","type":"uint256","internalType":"uint256"}],"outputs":[{"name":"","type":"string","internalType":"string"}],"stateMutability":"view"},{"type":"event","name":"ApprovalForAll","inputs":[{"name":"account","type":"address","indexed":true,"internalType":"address"},{"name":"operator","type":"address","indexed":true,"internalType":"address"},{"name":"approved","type":"bool","indexed":false,"internalType":"bool"}],"anonymous":false},{"type":"event","name":"OwnershipTransferred","inputs":[{"name":"previousOwner","type":"address","indexed":true,"internalType":"address"},{"name":"newOwner","type":"address","indexed":true,"internalType":"address"}],"anonymous":false},{"type":"event","name":"TransferBatch","inputs":[{"name":"operator","type":"address","indexed":true,"internalType":"address"},{"name":"from","type":"address","indexed":true,"internalType":"address"},{"name":"to","type":"address","indexed":true,"internalType":"address"},{"name":"ids","type":"uint256[]","indexed":false,"internalType":"uint256[]"},{"name":"values","type":"uint256[]","indexed":false,"internalType":"uint256[]"}],"anonymous":false},{"type":"event","name":"TransferSingle","inputs":[{"name":"operator","type":"address","indexed":true,"internalType":"address"},{"name":"from","type":"address","indexed":true,"internalType":"address"},{"name":"to","type":"address","indexed":true,"internalType":"address"},{"name":"id","type":"uint256","indexed":false,"internalType":"uint256"},{"name":"value","type":"uint256","indexed":false,"internalType":"uint256"}],"anonymous":false},{"type":"event","name":"URI","inputs":[{"name":"value","type":"string","indexed":false,"internalType":"string"},{"name":"id","type":"uint256","indexed":true,"internalType":"uint256"}],"anonymous":false},{"type":"error","name":"ERC1155InsufficientBalance","inputs":[{"name":"sender","type":"address","internalType":"address"},{"name":"balance","type":"uint256","internalType":"uint256"},{"name":"needed","type":"uint256","internalType":"uint256"},{"name":"tokenId","type":"uint256","internalType":"uint256"}]},{"type":"error","name":"ERC1155InvalidApprover","inputs":[{"name":"approver","type":"address","internalType":"address"}]},{"type":"error","name":"ERC1155InvalidArrayLength","inputs":[{"name":"idsLength","type":"uint256","internalType":"uint256"},{"name":"valuesLength","type":"uint256","internalType":"uint256"}]},{"type":"error","name":"ERC1155InvalidOperator","inputs":[{"name":"operator","type":"address","internalType":"address"}]},{"type":"error","name":"ERC1155InvalidReceiver","inputs":[{"name":"receiver","type":"address","internalType":"address"}]},{"type":"error","name":"ERC1155InvalidSender","inputs":[{"name":"sender","type":"address","internalType":"address"}]},{"type":"error","name":"ERC1155MissingApprovalForAll","inputs":[{"name":"operator","type":"address","internalType":"address"},{"name":"owner","type":"address","internalType":"address"}]},{"type":"error","name":"OwnableInvalidOwner","inputs":[{"name":"owner","type":"address","internalType":"address"}]},{"type":"error","name":"OwnableUnauthorizedAccount","inputs":[{"name":"account","type":"address","internalType":"address"}]}],"bytecode":{"object":"0x608060405234801561001057600080fd5b50604051611a80380380611a8083398101604081905261002f9161011b565b808261003a81610087565b506001600160a01b03811661006957604051631e4fbdf760e01b81526000600482015260240160405180910390fd5b61007281610097565b50600661007f8382610281565b50505061033f565b60026100938282610281565b5050565b600580546001600160a01b038381166001600160a01b0319831681179093556040519116919082907f8be0079c531659141344cd1fd0a4f28419497f9722a3daafe3b4186f6b6457e090600090a35050565b634e487b7160e01b600052604160045260246000fd5b80516001600160a01b038116811461011657600080fd5b919050565b6000806040838503121561012e57600080fd5b82516001600160401b0381111561014457600080fd5b8301601f8101851361015557600080fd5b80516001600160401b0381111561016e5761016e6100e9565b604051601f8201601f19908116603f011681016001600160401b038111828210171561019c5761019c6100e9565b6040528181528282016020018710156101b457600080fd5b60005b828110156101d3576020818501810151838301820152016101b7565b506000602083830101528094505050506101ef602084016100ff565b90509250929050565b600181811c9082168061020c57607f821691505b60208210810361022c57634e487b7160e01b600052602260045260246000fd5b50919050565b601f82111561027c57806000526020600020601f840160051c810160208510156102595750805b601f840160051c820191505b818110156102795760008155600101610265565b50505b505050565b81516001600160401b0381111561029a5761029a6100e9565b6102ae816102a884546101f8565b84610232565b6020601f8211600181146102e257600083156102ca5750848201515b600019600385901b1c1916600184901b178455610279565b600084815260208120601f198516915b8281101561031257878501518255602094850194600190920191016102f2565b50848210156103305786840151600019600387901b60f8161c191681555b50505050600190811b01905550565b6117328061034e6000396000f3fe608060405234801561001057600080fd5b50600436106100ff5760003560e01c8063715018a611610097578063bd85b03911610066578063bd85b03914610228578063e985e9c514610248578063f242432a1461025b578063f2fde38b1461026e57600080fd5b8063715018a6146101df578063731133e9146101e75780638da5cb5b146101fa578063a22cb4651461021557600080fd5b80631f7fdffa116100d35780631f7fdffa146101755780632eb2c2d61461018a5780634e1273f41461019d5780634f558e79146101bd57600080fd5b8062fdd58e1461010457806301ffc9a71461012a5780630e89341c1461014d57806318160ddd1461016d575b600080fd5b610117610112366004610f60565b610281565b6040519081526020015b60405180910390f35b61013d610138366004610fa0565b6102a9565b6040519015158152602001610121565b61016061015b366004610fc4565b6102f9565b604051610121919061102d565b600454610117565b610188610183366004611185565b61032d565b005b610188610198366004611227565b610347565b6101b06101ab3660046112da565b6103b3565b60405161012191906113dd565b61013d6101cb366004610fc4565b600090815260036020526040902054151590565b61018861047f565b6101886101f53660046113f0565b610493565b6005546040516001600160a01b039091168152602001610121565b610188610223366004611438565b6104a7565b610117610236366004610fc4565b60009081526003602052604090205490565b61013d610256366004611474565b6104b6565b6101886102693660046114a7565b6104e4565b61018861027c3660046114ff565b610543565b6000818152602081815260408083206001600160a01b03861684529091529020545b92915050565b60006001600160e01b03198216636cdb3d1360e11b14806102da57506001600160e01b031982166303a24d0760e21b145b806102a357506301ffc9a760e01b6001600160e01b03198316146102a3565b6060600661030683610581565b604051602001610317929190611536565b6040516020818303038152906040529050919050565b610335610613565b61034184848484610640565b50505050565b336001600160a01b0386168114801590610368575061036686826104b6565b155b1561039e5760405163711bec9160e11b81526001600160a01b038083166004830152871660248201526044015b60405180910390fd5b6103ab8686868686610678565b505050505050565b606081518351146103e45781518351604051635b05999160e01b815260048101929092526024820152604401610395565b600083516001600160401b038111156103ff576103ff611040565b604051908082528060200260200182016040528015610428578160200160208202803683370190505b50905060005b84518110156104775760208082028601015161045290602080840287010151610281565b828281518110610464576104646115e0565b602090810291909101015260010161042e565b509392505050565b610487610613565b61049160006106df565b565b61049b610613565b61034184848484610731565b6104b233838361078e565b5050565b6001600160a01b03918216600090815260016020908152604080832093909416825291909152205460ff1690565b336001600160a01b0386168114801590610505575061050386826104b6565b155b156105365760405163711bec9160e11b81526001600160a01b03808316600483015287166024820152604401610395565b6103ab8686868686610824565b61054b610613565b6001600160a01b03811661057557604051631e4fbdf760e01b815260006004820152602401610395565b61057e816106df565b50565b6060600061058e836108b2565b60010190506000816001600160401b038111156105ad576105ad611040565b6040519080825280601f01601f1916602001820160405280156105d7576020820181803683370190505b5090508181016020015b600019016f181899199a1a9b1b9c1cb0b131b232b360811b600a86061a8153600a85049450846105e157509392505050565b6005546001600160a01b031633146104915760405163118cdaa760e01b8152336004820152602401610395565b6001600160a01b03841661066a57604051632bfa23e760e11b815260006004820152602401610395565b61034160008585858561098a565b6001600160a01b0384166106a257604051632bfa23e760e11b815260006004820152602401610395565b6001600160a01b0385166106cb57604051626a0d4560e21b815260006004820152602401610395565b6106d8858585858561098a565b5050505050565b600580546001600160a01b038381166001600160a01b0319831681179093556040519116919082907f8be0079c531659141344cd1fd0a4f28419497f9722a3daafe3b4186f6b6457e090600090a35050565b6001600160a01b03841661075b57604051632bfa23e760e11b815260006004820152602401610395565b604080516001808252602082018690528183019081526060820185905260808201909252906103ab60008784848761098a565b6001600160a01b0382166107b75760405162ced3e160e81b815260006004820152602401610395565b6001600160a01b03838116600081815260016020908152604080832094871680845294825291829020805460ff191686151590811790915591519182527f17307eab39ab6107e8899845ad3d59bd9653f200f220920489ca2b5937696c31910160405180910390a3505050565b6001600160a01b03841661084e57604051632bfa23e760e11b815260006004820152602401610395565b6001600160a01b03851661087757604051626a0d4560e21b815260006004820152602401610395565b604080516001808252602082018690528183019081526060820185905260808201909252906108a9878784848761098a565b50505050505050565b60008072184f03e93ff9f4daa797ed6e38ed64bf6a1f0160401b83106108f15772184f03e93ff9f4daa797ed6e38ed64bf6a1f0160401b830492506040015b6d04ee2d6d415b85acef8100000000831061091d576d04ee2d6d415b85acef8100000000830492506020015b662386f26fc10000831061093b57662386f26fc10000830492506010015b6305f5e1008310610953576305f5e100830492506008015b612710831061096757612710830492506004015b60648310610979576064830492506002015b600a83106102a35760010192915050565b610996858585856109dd565b6001600160a01b038416156106d857825133906001036109cf57602084810151908401516109c8838989858589610b23565b50506103ab565b6103ab818787878787610c47565b6109e984848484610d30565b6001600160a01b038416610a93576000805b8351811015610a79576000838281518110610a1857610a186115e0565b602002602001015190508060036000878581518110610a3957610a396115e0565b602002602001015181526020019081526020016000206000828254610a5e91906115f6565b90915550610a6e905081846115f6565b9250506001016109fb565b508060046000828254610a8c91906115f6565b9091555050505b6001600160a01b038316610341576000805b8351811015610b12576000838281518110610ac257610ac26115e0565b602002602001015190508060036000878581518110610ae357610ae36115e0565b602090810291909101810151825281019190915260400160002080549190910390559190910190600101610aa5565b506004805491909103905550505050565b6001600160a01b0384163b156103ab5760405163f23a6e6160e01b81526001600160a01b0385169063f23a6e6190610b679089908990889088908890600401611617565b6020604051808303816000875af1925050508015610ba2575060408051601f3d908101601f19168201909252610b9f9181019061165c565b60015b610c0b573d808015610bd0576040519150601f19603f3d011682016040523d82523d6000602084013e610bd5565b606091505b508051600003610c0357604051632bfa23e760e11b81526001600160a01b0386166004820152602401610395565b805181602001fd5b6001600160e01b0319811663f23a6e6160e01b146108a957604051632bfa23e760e11b81526001600160a01b0386166004820152602401610395565b6001600160a01b0384163b156103ab5760405163bc197c8160e01b81526001600160a01b0385169063bc197c8190610c8b9089908990889088908890600401611679565b6020604051808303816000875af1925050508015610cc6575060408051601f3d908101601f19168201909252610cc39181019061165c565b60015b610cf4573d808015610bd0576040519150601f19603f3d011682016040523d82523d6000602084013e610bd5565b6001600160e01b0319811663bc197c8160e01b146108a957604051632bfa23e760e11b81526001600160a01b0386166004820152602401610395565b8051825114610d5f5781518151604051635b05999160e01b815260048101929092526024820152604401610395565b3360005b8351811015610e65576020818102858101820151908501909101516001600160a01b03881615610e16576000828152602081815260408083206001600160a01b038c16845290915290205481811015610def576040516303dee4c560e01b81526001600160a01b038a166004820152602481018290526044810183905260648101849052608401610395565b6000838152602081815260408083206001600160a01b038d16845290915290209082900390555b6001600160a01b03871615610e5b576000828152602081815260408083206001600160a01b038b16845290915281208054839290610e559084906115f6565b90915550505b5050600101610d63565b508251600103610ee65760208301516000906020840151909150856001600160a01b0316876001600160a01b0316846001600160a01b03167fc3d58168c5ae7397731d063d5bbf3d657854427343f4c083240f7aacaa2d0f628585604051610ed7929190918252602082015260400190565b60405180910390a450506106d8565b836001600160a01b0316856001600160a01b0316826001600160a01b03167f4a39dc06d4c0dbc64b70af90fd698a233a518aa5d07e595d983b8c0526c8f7fb8686604051610f359291906116d7565b60405180910390a45050505050565b80356001600160a01b0381168114610f5b57600080fd5b919050565b60008060408385031215610f7357600080fd5b610f7c83610f44565b946020939093013593505050565b6001600160e01b03198116811461057e57600080fd5b600060208284031215610fb257600080fd5b8135610fbd81610f8a565b9392505050565b600060208284031215610fd657600080fd5b5035919050565b60005b83811015610ff8578181015183820152602001610fe0565b50506000910152565b60008151808452611019816020860160208601610fdd565b601f01601f19169290920160200192915050565b602081526000610fbd6020830184611001565b634e487b7160e01b600052604160045260246000fd5b604051601f8201601f191681016001600160401b038111828210171561107e5761107e611040565b604052919050565b60006001600160401b0382111561109f5761109f611040565b5060051b60200190565b600082601f8301126110ba57600080fd5b81356110cd6110c882611086565b611056565b8082825260208201915060208360051b8601019250858311156110ef57600080fd5b602085015b8381101561110c5780358352602092830192016110f4565b5095945050505050565b600082601f83011261112757600080fd5b81356001600160401b0381111561114057611140611040565b611153601f8201601f1916602001611056565b81815284602083860101111561116857600080fd5b816020850160208301376000918101602001919091529392505050565b6000806000806080858703121561119b57600080fd5b6111a485610f44565b935060208501356001600160401b038111156111bf57600080fd5b6111cb878288016110a9565b93505060408501356001600160401b038111156111e757600080fd5b6111f3878288016110a9565b92505060608501356001600160401b0381111561120f57600080fd5b61121b87828801611116565b91505092959194509250565b600080600080600060a0868803121561123f57600080fd5b61124886610f44565b945061125660208701610f44565b935060408601356001600160401b0381111561127157600080fd5b61127d888289016110a9565b93505060608601356001600160401b0381111561129957600080fd5b6112a5888289016110a9565b92505060808601356001600160401b038111156112c157600080fd5b6112cd88828901611116565b9150509295509295909350565b600080604083850312156112ed57600080fd5b82356001600160401b0381111561130357600080fd5b8301601f8101851361131457600080fd5b80356113226110c882611086565b8082825260208201915060208360051b85010192508783111561134457600080fd5b6020840193505b8284101561136d5761135c84610f44565b82526020938401939091019061134b565b945050505060208301356001600160401b0381111561138b57600080fd5b611397858286016110a9565b9150509250929050565b600081518084526020840193506020830160005b828110156113d35781518652602095860195909101906001016113b5565b5093949350505050565b602081526000610fbd60208301846113a1565b6000806000806080858703121561140657600080fd5b61140f85610f44565b9350602085013592506040850135915060608501356001600160401b0381111561120f57600080fd5b6000806040838503121561144b57600080fd5b61145483610f44565b91506020830135801515811461146957600080fd5b809150509250929050565b6000806040838503121561148757600080fd5b61149083610f44565b915061149e60208401610f44565b90509250929050565b600080600080600060a086880312156114bf57600080fd5b6114c886610f44565b94506114d660208701610f44565b9350604086013592506060860135915060808601356001600160401b038111156112c157600080fd5b60006020828403121561151157600080fd5b610fbd82610f44565b6000815161152c818560208601610fdd565b9290920192915050565b6000808454818160011c9050600182168061155257607f821691505b60208210810361157057634e487b7160e01b84526022600452602484fd5b8080156115845760018114611599576115c9565b60ff19841687528215158302870194506115c9565b60008981526020902060005b848110156115c1578154898201526001909101906020016115a5565b505082870194505b505050506115d7818561151a565b95945050505050565b634e487b7160e01b600052603260045260246000fd5b808201808211156102a357634e487b7160e01b600052601160045260246000fd5b6001600160a01b03868116825285166020820152604081018490526060810183905260a06080820181905260009061165190830184611001565b979650505050505050565b60006020828403121561166e57600080fd5b8151610fbd81610f8a565b6001600160a01b0386811682528516602082015260a0604082018190526000906116a5908301866113a1565b82810360608401526116b781866113a1565b905082810360808401526116cb8185611001565b98975050505050505050565b6040815260006116ea60408301856113a1565b82810360208401526115d781856113a156fea2646970667358221220af19f1570c81242a2bb547f502bdb7ea9a8bbccb1cf5dd66f219521e6d3ab93b64736f6c634300081b0033","linkReferences":{}},"methodIdentifiers":{"balanceOf(address,uint256)":"00fdd58e","balanceOfBatch(address[],uint256[])":"4e1273f4","exists(uint256)":"4f558e79","isApprovedForAll(address,address)":"e985e9c5","mint(address,uint256,uint256,bytes)":"731133e9","mintBatch(address,uint256[],uint256[],bytes)":"1f7fdffa","owner()":"8da5cb5b","renounceOwnership()":"715018a6","safeBatchTransferFrom(address,address,uint256[],uint256[],bytes)":"2eb2c2d6","safeTransferFrom(address,address,uint256,uint256,bytes)":"f242432a","setApprovalForAll(address,bool)":"a22cb465","supportsInterface(bytes4)":"01ffc9a7","totalSupply()":"18160ddd","totalSupply(uint256)":"bd85b039","transferOwnership(address)":"f2fde38b","uri(uint256)":"0e89341c"},"id":1}