{"abi":[{"type":"constructor","inputs":[{"name":"initialOwner","type":"address","internalType":"address"}],"stateMutability":"nonpayable"},{"type":"function","name":"allowance","inputs":[{"name":"owner","type":"address","internalType":"address"},{"name":"spender","type":"address","internalType":"address"}],"outputs":[{"name":"","type":"uint256","internalType":"uint256"}],"stateMutability":"view"},{"type":"function","name":"approve","inputs":[{"name":"spender","type":"address","internalType":"address"},{"name":"value","type":"uint256","internalType":"uint256"}],"outputs":[{"name":"","type":"bool","internalType":"bool"}],"stateMutability":"nonpayable"},{"type":"function","name":"balanceOf","inputs":[{"name":"account","type":"address","internalType":"address"}],"outputs":[{"name":"","type":"uint256","internalType":"uint256"}],"stateMutability":"view"},{"type":"function","name":"decimals","inputs":[],"outputs":[{"name":"","type":"uint8","internalType":"uint8"}],"stateMutability":"view"},{"type":"function","name":"name","inputs":[],"outputs":[{"name":"","type":"string","internalType":"string"}],"stateMutability":"view"},{"type":"function","name":"owner","inputs":[],"outputs":[{"name":"","type":"address","internalType":"address"}],"stateMutability":"view"},{"type":"function","name":"purchase","inputs":[{"name":"to","type":"address","internalType":"address"}],"outputs":[],"stateMutability":"payable"},{"type":"function","name":"renounceOwnership","inputs":[],"outputs":[],"stateMutability":"nonpayable"},{"type":"function","name":"symbol","inputs":[],"outputs":[{"name":"","type":"string","internalType":"string"}],"stateMutability":"view"},{"type":"function","name":"totalSupply","inputs":[],"outputs":[{"name":"","type":"uint256","internalType":"uint256"}],"stateMutability":"view"},{"type":"function","name":"transfer","inputs":[{"name":"to","type":"address","internalType":"address"},{"name":"value","type":"uint256","internalType":"uint256"}],"outputs":[{"name":"","type":"bool","internalType":"bool"}],"stateMutability":"nonpayable"},{"type":"function","name":"transferFrom","inputs":[{"name":"from","type":"address","internalType":"address"},{"name":"to","type":"address","internalType":"address"},{"name":"value","type":"uint256","internalType":"uint256"}],"outputs":[{"name":"","type":"bool","internalType":"bool"}],"stateMutability":"nonpayable"},{"type":"function","name":"transferOwnership","inputs":[{"name":"newOwner","type":"address","internalType":"address"}],"outputs":[],"stateMutability":"nonpayable"},{"type":"event","name":"Approval","inputs":[{"name":"owner","type":"address","indexed":true,"internalType":"address"},{"name":"spender","type":"address","indexed":true,"internalType":"address"},{"name":"value","type":"uint256","indexed":false,"internalType":"uint256"}],"anonymous":false},{"type":"event","name":"OwnershipTransferred","inputs":[{"name":"previousOwner","type":"address","indexed":true,"internalType":"address"},{"name":"newOwner","type":"address","indexed":true,"internalType":"address"}],"anonymous":false},{"type":"event","name":"Transfer","inputs":[{"name":"from","type":"address","indexed":true,"internalType":"address"},{"name":"to","type":"address","indexed":true,"internalType":"address"},{"name":"value","type":"uint256","indexed":false,"internalType":"uint256"}],"anonymous":false},{"type":"error","name":"ERC20InsufficientAllowance","inputs":[{"name":"spender","type":"address","internalType":"address"},{"name":"allowance","type":"uint256","internalType":"uint256"},{"name":"needed","type":"uint256","internalType":"uint256"}]},{"type":"error","name":"ERC20InsufficientBalance","inputs":[{"name":"sender","type":"address","internalType":"address"},{"name":"balance","type":"uint256","internalType":"uint256"},{"name":"needed","type":"uint256","internalType":"uint256"}]},{"type":"error","name":"ERC20InvalidApprover","inputs":[{"name":"approver","type":"address","internalType":"address"}]},{"type":"error","name":"ERC20InvalidReceiver","inputs":[{"name":"receiver","type":"address","internalType":"address"}]},{"type":"error","name":"ERC20InvalidSender","inputs":[{"name":"sender","type":"address","internalType":"address"}]},{"type":"error","name":"ERC20InvalidSpender","inputs":[{"name":"spender","type":"address","internalType":"address"}]},{"type":"error","name":"OwnableInvalidOwner","inputs":[{"name":"owner","type":"address","internalType":"address"}]},{"type":"error","name":"OwnableUnauthorizedAccount","inputs":[{"name":"account","type":"address","internalType":"address"}]}],"bytecode":{"object":"0x6080604052633b9aca0060065561271060075534801561001e57600080fd5b50604051611f93380380611f938339818101604052810190610040919061056b565b806040518060400160405280601181526020017f4d6174656d6174657373614552433732310000000000000000000000000000008152506040518060400160405280600881526020017f4d544d455243323000000000000000000000000000000000000000000000000081525081600390816100bc91906107e8565b5080600490816100cc91906107e8565b505050600073ffffffffffffffffffffffffffffffffffffffff168173ffffffffffffffffffffffffffffffffffffffff16036101415760006040517f1e4fbdf700000000000000000000000000000000000000000000000000000000815260040161013891906108c9565b60405180910390fd5b6101508161018c60201b60201c565b506101868161016361025260201b60201c565b600a61016f9190610a53565b600861017b9190610a9e565b61025b60201b60201c565b50610b75565b6000600560009054906101000a900473ffffffffffffffffffffffffffffffffffffffff16905081600560006101000a81548173ffffffffffffffffffffffffffffffffffffffff021916908373ffffffffffffffffffffffffffffffffffffffff1602179055508173ffffffffffffffffffffffffffffffffffffffff168173ffffffffffffffffffffffffffffffffffffffff167f8be0079c531659141344cd1fd0a4f28419497f9722a3daafe3b4186f6b6457e060405160405180910390a35050565b60006012905090565b600073ffffffffffffffffffffffffffffffffffffffff168273ffffffffffffffffffffffffffffffffffffffff16036102cd5760006040517fec442f050000000000000000000000000000000000000000000000000000000081526004016102c491906108c9565b60405180910390fd5b6102df600083836102e360201b60201c565b5050565b600073ffffffffffffffffffffffffffffffffffffffff168373ffffffffffffffffffffffffffffffffffffffff16036103355780600260008282546103299190610ae0565b92505081905550610408565b60008060008573ffffffffffffffffffffffffffffffffffffffff1673ffffffffffffffffffffffffffffffffffffffff168152602001908152602001600020549050818110156103c1578381836040517fe450d38c0000000000000000000000000000000000000000000000000000000081526004016103b893929190610b23565b60405180910390fd5b8181036000808673ffffffffffffffffffffffffffffffffffffffff1673ffffffffffffffffffffffffffffffffffffffff16815260200190815260200160002081905550505b600073ffffffffffffffffffffffffffffffffffffffff168273ffffffffffffffffffffffffffffffffffffffff1603610451578060026000828254039250508190555061049e565b806000808473ffffffffffffffffffffffffffffffffffffffff1673ffffffffffffffffffffffffffffffffffffffff168152602001908152602001600020600082825401925050819055505b8173ffffffffffffffffffffffffffffffffffffffff168373ffffffffffffffffffffffffffffffffffffffff167fddf252ad1be2c89b69c2b068fc378daa952ba7f163c4a11628f55a4df523b3ef836040516104fb9190610b5a565b60405180910390a3505050565b600080fd5b600073ffffffffffffffffffffffffffffffffffffffff82169050919050565b60006105388261050d565b9050919050565b6105488161052d565b811461055357600080fd5b50565b6000815190506105658161053f565b92915050565b60006020828403121561058157610580610508565b5b600061058f84828501610556565b91505092915050565b600081519050919050565b7f4e487b7100000000000000000000000000000000000000000000000000000000600052604160045260246000fd5b7f4e487b7100000000000000000000000000000000000000000000000000000000600052602260045260246000fd5b6000600282049050600182168061061957607f821691505b60208210810361062c5761062b6105d2565b5b50919050565b60008190508160005260206000209050919050565b60006020601f8301049050919050565b600082821b905092915050565b6000600883026106947fffffffffffffffffffffffffffffffffffffffffffffffffffffffffffffffff82610657565b61069e8683610657565b95508019841693508086168417925050509392505050565b6000819050919050565b6000819050919050565b60006106e56106e06106db846106b6565b6106c0565b6106b6565b9050919050565b6000819050919050565b6106ff836106ca565b61071361070b826106ec565b848454610664565b825550505050565b600090565b61072861071b565b6107338184846106f6565b505050565b5b818110156107575761074c600082610720565b600181019050610739565b5050565b601f82111561079c5761076d81610632565b61077684610647565b81016020851015610785578190505b61079961079185610647565b830182610738565b50505b505050565b600082821c905092915050565b60006107bf600019846008026107a1565b1980831691505092915050565b60006107d883836107ae565b9150826002028217905092915050565b6107f182610598565b67ffffffffffffffff81111561080a576108096105a3565b5b6108148254610601565b61081f82828561075b565b600060209050601f8311600181146108525760008415610840578287015190505b61084a85826107cc565b8655506108b2565b601f19841661086086610632565b60005b8281101561088857848901518255600182019150602085019450602081019050610863565b868310156108a557848901516108a1601f8916826107ae565b8355505b6001600288020188555050505b505050505050565b6108c38161052d565b82525050565b60006020820190506108de60008301846108ba565b92915050565b7f4e487b7100000000000000000000000000000000000000000000000000000000600052601160045260246000fd5b60008160011c9050919050565b6000808291508390505b600185111561096a57808604811115610946576109456108e4565b5b60018516156109555780820291505b808102905061096385610913565b945061092a565b94509492505050565b6000826109835760019050610a3f565b816109915760009050610a3f565b81600181146109a757600281146109b1576109e0565b6001915050610a3f565b60ff8411156109c3576109c26108e4565b5b8360020a9150848211156109da576109d96108e4565b5b50610a3f565b5060208310610133831016604e8410600b8410161715610a155782820a905083811115610a1057610a0f6108e4565b5b610a3f565b610a228484846001610920565b92509050818404811115610a3957610a386108e4565b5b81810290505b9392505050565b600060ff82169050919050565b6000610a5e826106b6565b9150610a6983610a46565b9250610a967fffffffffffffffffffffffffffffffffffffffffffffffffffffffffffffffff8484610973565b905092915050565b6000610aa9826106b6565b9150610ab4836106b6565b9250828202610ac2816106b6565b91508282048414831517610ad957610ad86108e4565b5b5092915050565b6000610aeb826106b6565b9150610af6836106b6565b9250828201905080821115610b0e57610b0d6108e4565b5b92915050565b610b1d816106b6565b82525050565b6000606082019050610b3860008301866108ba565b610b456020830185610b14565b610b526040830184610b14565b949350505050565b6000602082019050610b6f6000830184610b14565b92915050565b61140f80610b846000396000f3fe6080604052600436106100c25760003560e01c806370a082311161007f57806395d89b411161005957806395d89b411461025d578063a9059cbb14610288578063dd62ed3e146102c5578063f2fde38b14610302576100c2565b806370a08231146101de578063715018a61461021b5780638da5cb5b14610232576100c2565b806306fdde03146100c7578063095ea7b3146100f257806318160ddd1461012f57806323b872dd1461015a57806325b31a9714610197578063313ce567146101b3575b600080fd5b3480156100d357600080fd5b506100dc61032b565b6040516100e99190610ee9565b60405180910390f35b3480156100fe57600080fd5b5061011960048036038101906101149190610fa4565b6103bd565b6040516101269190610fff565b60405180910390f35b34801561013b57600080fd5b506101446103e0565b6040516101519190611029565b60405180910390f35b34801561016657600080fd5b50610181600480360381019061017c9190611044565b6103ea565b60405161018e9190610fff565b60405180910390f35b6101b160048036038101906101ac9190611097565b610433565b005b3480156101bf57600080fd5b506101c8610503565b6040516101d591906110e0565b60405180910390f35b3480156101ea57600080fd5b5061020560048036038101906102009190611097565b61050c565b6040516102129190611029565b60405180910390f35b34801561022757600080fd5b50610230610554565b005b34801561023e57600080fd5b50610247610568565b604051610254919061110a565b60405180910390f35b34801561026957600080fd5b50610272610592565b60405161027f9190610ee9565b60405180910390f35b34801561029457600080fd5b506102af60048036038101906102aa9190610fa4565b610624565b6040516102bc9190610fff565b60405180910390f35b3480156102d157600080fd5b506102ec60048036038101906102e79190611125565b610661565b6040516102f99190611029565b60405180910390f35b34801561030e57600080fd5b5061032960048036038101906103249190611097565b6106e8565b005b60606003805461033a90611194565b80601f016020809104026020016040519081016040528092919081815260200182805461036690611194565b80156103b35780601f10610388576101008083540402835291602001916103b3565b820191906000526020600020905b81548152906001019060200180831161039657829003601f168201915b5050505050905090565b6000806103c861076e565b90506103d5818585610776565b600191505092915050565b6000600254905090565b600080600754836103fb9190611223565b9050610408853385610788565b610415338583860361081c565b61042733610421610568565b8361081c565b60019150509392505050565b60003411610476576040517f08c379a000000000000000000000000000000000000000000000000000000000815260040161046d906112a0565b60405180910390fd5b6000670de0b6b3a76400006006543461048f91906112c0565b6104999190611223565b9050806104ac6104a7610568565b61050c565b10156104ed576040517f08c379a00000000000000000000000000000000000000000000000000000000081526004016104e49061134e565b60405180910390fd5b6104ff6104f8610568565b838361081c565b5050565b60006012905090565b60008060008373ffffffffffffffffffffffffffffffffffffffff1673ffffffffffffffffffffffffffffffffffffffff168152602001908152602001600020549050919050565b61055c610910565b6105666000610997565b565b6000600560009054906101000a900473ffffffffffffffffffffffffffffffffffffffff16905090565b6060600480546105a190611194565b80601f01602080910402602001604051908101604052809291908181526020018280546105cd90611194565b801561061a5780601f106105ef5761010080835404028352916020019161061a565b820191906000526020600020905b8154815290600101906020018083116105fd57829003601f168201915b5050505050905090565b600080600754836106359190611223565b9050610644338583860361081c565b61065633610650610568565b8361081c565b600191505092915050565b6000600160008473ffffffffffffffffffffffffffffffffffffffff1673ffffffffffffffffffffffffffffffffffffffff16815260200190815260200160002060008373ffffffffffffffffffffffffffffffffffffffff1673ffffffffffffffffffffffffffffffffffffffff16815260200190815260200160002054905092915050565b6106f0610910565b600073ffffffffffffffffffffffffffffffffffffffff168173ffffffffffffffffffffffffffffffffffffffff16036107625760006040517f1e4fbdf7000000000000000000000000000000000000000000000000000000008152600401610759919061110a565b60405180910390fd5b61076b81610997565b50565b600033905090565b6107838383836001610a5d565b505050565b60006107948484610661565b90507fffffffffffffffffffffffffffffffffffffffffffffffffffffffffffffffff81146108165781811015610806578281836040517ffb8f41b20000000000000000000000000000000000000000000000000000000081526004016107fd9392919061136e565b60405180910390fd5b61081584848484036000610a5d565b5b50505050565b600073ffffffffffffffffffffffffffffffffffffffff168373ffffffffffffffffffffffffffffffffffffffff160361088e5760006040517f96c6fd1e000000000000000000000000000000000000000000000000000000008152600401610885919061110a565b60405180910390fd5b600073ffffffffffffffffffffffffffffffffffffffff168273ffffffffffffffffffffffffffffffffffffffff16036109005760006040517fec442f050000000000000000000000000000000000000000000000000000000081526004016108f7919061110a565b60405180910390fd5b61090b838383610c34565b505050565b61091861076e565b73ffffffffffffffffffffffffffffffffffffffff16610936610568565b73ffffffffffffffffffffffffffffffffffffffff16146109955761095961076e565b6040517f118cdaa700000000000000000000000000000000000000000000000000000000815260040161098c919061110a565b60405180910390fd5b565b6000600560009054906101000a900473ffffffffffffffffffffffffffffffffffffffff16905081600560006101000a81548173ffffffffffffffffffffffffffffffffffffffff021916908373ffffffffffffffffffffffffffffffffffffffff1602179055508173ffffffffffffffffffffffffffffffffffffffff168173ffffffffffffffffffffffffffffffffffffffff167f8be0079c531659141344cd1fd0a4f28419497f9722a3daafe3b4186f6b6457e060405160405180910390a35050565b600073ffffffffffffffffffffffffffffffffffffffff168473ffffffffffffffffffffffffffffffffffffffff1603610acf5760006040517fe602df05000000000000000000000000000000000000000000000000000000008152600401610ac6919061110a565b60405180910390fd5b600073ffffffffffffffffffffffffffffffffffffffff168373ffffffffffffffffffffffffffffffffffffffff1603610b415760006040517f94280d62000000000000000000000000000000000000000000000000000000008152600401610b38919061110a565b60405180910390fd5b81600160008673ffffffffffffffffffffffffffffffffffffffff1673ffffffffffffffffffffffffffffffffffffffff16815260200190815260200160002060008573ffffffffffffffffffffffffffffffffffffffff1673ffffffffffffffffffffffffffffffffffffffff168152602001908152602001600020819055508015610c2e578273ffffffffffffffffffffffffffffffffffffffff168473ffffffffffffffffffffffffffffffffffffffff167f8c5be1e5ebec7d5bd14f71427d1e84f3dd0314c0f7b2291e5b200ac8c7c3b92584604051610c259190611029565b60405180910390a35b50505050565b600073ffffffffffffffffffffffffffffffffffffffff168373ffffffffffffffffffffffffffffffffffffffff1603610c86578060026000828254610c7a91906113a5565b92505081905550610d59565b60008060008573ffffffffffffffffffffffffffffffffffffffff1673ffffffffffffffffffffffffffffffffffffffff16815260200190815260200160002054905081811015610d12578381836040517fe450d38c000000000000000000000000000000000000000000000000000000008152600401610d099392919061136e565b60405180910390fd5b8181036000808673ffffffffffffffffffffffffffffffffffffffff1673ffffffffffffffffffffffffffffffffffffffff16815260200190815260200160002081905550505b600073ffffffffffffffffffffffffffffffffffffffff168273ffffffffffffffffffffffffffffffffffffffff1603610da25780600260008282540392505081905550610def565b806000808473ffffffffffffffffffffffffffffffffffffffff1673ffffffffffffffffffffffffffffffffffffffff168152602001908152602001600020600082825401925050819055505b8173ffffffffffffffffffffffffffffffffffffffff168373ffffffffffffffffffffffffffffffffffffffff167fddf252ad1be2c89b69c2b068fc378daa952ba7f163c4a11628f55a4df523b3ef83604051610e4c9190611029565b60405180910390a3505050565b600081519050919050565b600082825260208201905092915050565b60005b83811015610e93578082015181840152602081019050610e78565b60008484015250505050565b6000601f19601f8301169050919050565b6000610ebb82610e59565b610ec58185610e64565b9350610ed5818560208601610e75565b610ede81610e9f565b840191505092915050565b60006020820190508181036000830152610f038184610eb0565b905092915050565b600080fd5b600073ffffffffffffffffffffffffffffffffffffffff82169050919050565b6000610f3b82610f10565b9050919050565b610f4b81610f30565b8114610f5657600080fd5b50565b600081359050610f6881610f42565b92915050565b6000819050919050565b610f8181610f6e565b8114610f8c57600080fd5b50565b600081359050610f9e81610f78565b92915050565b60008060408385031215610fbb57610fba610f0b565b5b6000610fc985828601610f59565b9250506020610fda85828601610f8f565b9150509250929050565b60008115159050919050565b610ff981610fe4565b82525050565b60006020820190506110146000830184610ff0565b92915050565b61102381610f6e565b82525050565b600060208201905061103e600083018461101a565b92915050565b60008060006060848603121561105d5761105c610f0b565b5b600061106b86828701610f59565b935050602061107c86828701610f59565b925050604061108d86828701610f8f565b9150509250925092565b6000602082840312156110ad576110ac610f0b565b5b60006110bb84828501610f59565b91505092915050565b600060ff82169050919050565b6110da816110c4565b82525050565b60006020820190506110f560008301846110d1565b92915050565b61110481610f30565b82525050565b600060208201905061111f60008301846110fb565b92915050565b6000806040838503121561113c5761113b610f0b565b5b600061114a85828601610f59565b925050602061115b85828601610f59565b9150509250929050565b7f4e487b7100000000000000000000000000000000000000000000000000000000600052602260045260246000fd5b600060028204905060018216806111ac57607f821691505b6020821081036111bf576111be611165565b5b50919050565b7f4e487b7100000000000000000000000000000000000000000000000000000000600052601260045260246000fd5b7f4e487b7100000000000000000000000000000000000000000000000000000000600052601160045260246000fd5b600061122e82610f6e565b915061123983610f6e565b925082611249576112486111c5565b5b828204905092915050565b7f53656e6420636f696e7320746f20707572636861736520746f6b656e73000000600082015250565b600061128a601d83610e64565b915061129582611254565b602082019050919050565b600060208201905081810360008301526112b98161127d565b9050919050565b60006112cb82610f6e565b91506112d683610f6e565b92508282026112e481610f6e565b915082820484148315176112fb576112fa6111f4565b5b5092915050565b7f4e6f7420656e6f75676820746f6b656e7320696e207265736572766500000000600082015250565b6000611338601c83610e64565b915061134382611302565b602082019050919050565b600060208201905081810360008301526113678161132b565b9050919050565b600060608201905061138360008301866110fb565b611390602083018561101a565b61139d604083018461101a565b949350505050565b60006113b082610f6e565b91506113bb83610f6e565b92508282019050808211156113d3576113d26111f4565b5b9291505056fea2646970667358221220b8a37329a79641750319ab890422d4b90a57cdc5ac7045cc45b4fbc65074d3f064736f6c634300081b0033","linkReferences":{}},"methodIdentifiers":{"allowance(address,address)":"dd62ed3e","approve(address,uint256)":"095ea7b3","balanceOf(address)":"70a08231","decimals()":"313ce567","name()":"06fdde03","owner()":"8da5cb5b","purchase(address)":"25b31a97","renounceOwnership()":"715018a6","symbol()":"95d89b41","totalSupply()":"18160ddd","transfer(address,uint256)":"a9059cbb","transferFrom(address,address,uint256)":"23b872dd","transferOwnership(address)":"f2fde38b"},"id":1}