{"abi":[{"type":"constructor","inputs":[{"name":"initialOwner","type":"address","internalType":"address"}],"stateMutability":"nonpayable"},{"type":"function","name":"approve","inputs":[{"name":"to","type":"address","internalType":"address"},{"name":"tokenId","type":"uint256","internalType":"uint256"}],"outputs":[],"stateMutability":"nonpayable"},{"type":"function","name":"balanceOf","inputs":[{"name":"owner","type":"address","internalType":"address"}],"outputs":[{"name":"","type":"uint256","internalType":"uint256"}],"stateMutability":"view"},{"type":"function","name":"getApproved","inputs":[{"name":"tokenId","type":"uint256","internalType":"uint256"}],"outputs":[{"name":"","type":"address","internalType":"address"}],"stateMutability":"view"},{"type":"function","name":"isApprovedForAll","inputs":[{"name":"owner","type":"address","internalType":"address"},{"name":"operator","type":"address","internalType":"address"}],"outputs":[{"name":"","type":"bool","internalType":"bool"}],"stateMutability":"view"},{"type":"function","name":"name","inputs":[],"outputs":[{"name":"","type":"string","internalType":"string"}],"stateMutability":"view"},{"type":"function","name":"owner","inputs":[],"outputs":[{"name":"","type":"address","internalType":"address"}],"stateMutability":"view"},{"type":"function","name":"ownerOf","inputs":[{"name":"tokenId","type":"uint256","internalType":"uint256"}],"outputs":[{"name":"","type":"address","internalType":"address"}],"stateMutability":"view"},{"type":"function","name":"renounceOwnership","inputs":[],"outputs":[],"stateMutability":"nonpayable"},{"type":"function","name":"safeMint","inputs":[{"name":"to","type":"address","internalType":"address"},{"name":"tokenId","type":"uint256","internalType":"uint256"}],"outputs":[],"stateMutability":"nonpayable"},{"type":"function","name":"safeMint","inputs":[{"name":"to","type":"address","internalType":"address"},{"name":"tokenId","type":"uint256","internalType":"uint256"},{"name":"uri","type":"string","internalType":"string"}],"outputs":[],"stateMutability":"nonpayable"},{"type":"function","name":"safeTransferFrom","inputs":[{"name":"from","type":"address","internalType":"address"},{"name":"to","type":"address","internalType":"address"},{"name":"tokenId","type":"uint256","internalType":"uint256"}],"outputs":[],"stateMutability":"nonpayable"},{"type":"function","name":"safeTransferFrom","inputs":[{"name":"from","type":"address","internalType":"address"},{"name":"to","type":"address","internalType":"address"},{"name":"tokenId","type":"uint256","internalType":"uint256"},{"name":"data","type":"bytes","internalType":"bytes"}],"outputs":[],"stateMutability":"nonpayable"},{"type":"function","name":"setApprovalForAll","inputs":[{"name":"operator","type":"address","internalType":"address"},{"name":"approved","type":"bool","internalType":"bool"}],"outputs":[],"stateMutability":"nonpayable"},{"type":"function","name":"supportsInterface","inputs":[{"name":"interfaceId","type":"bytes4","internalType":"bytes4"}],"outputs":[{"name":"","type":"bool","internalType":"bool"}],"stateMutability":"view"},{"type":"function","name":"symbol","inputs":[],"outputs":[{"name":"","type":"string","internalType":"string"}],"stateMutability":"view"},{"type":"function","name":"tokenURI","inputs":[{"name":"tokenId","type":"uint256","internalType":"uint256"}],"outputs":[{"name":"","type":"string","internalType":"string"}],"stateMutability":"view"},{"type":"function","name":"transferFrom","inputs":[{"name":"from","type":"address","internalType":"address"},{"name":"to","type":"address","internalType":"address"},{"name":"tokenId","type":"uint256","internalType":"uint256"}],"outputs":[],"stateMutability":"nonpayable"},{"type":"function","name":"transferOwnership","inputs":[{"name":"newOwner","type":"address","internalType":"address"}],"outputs":[],"stateMutability":"nonpayable"},{"type":"event","name":"Approval","inputs":[{"name":"owner","type":"address","indexed":true,"internalType":"address"},{"name":"approved","type":"address","indexed":true,"internalType":"address"},{"name":"tokenId","type":"uint256","indexed":true,"internalType":"uint256"}],"anonymous":false},{"type":"event","name":"ApprovalForAll","inputs":[{"name":"owner","type":"address","indexed":true,"internalType":"address"},{"name":"operator","type":"address","indexed":true,"internalType":"address"},{"name":"approved","type":"bool","indexed":false,"internalType":"bool"}],"anonymous":false},{"type":"event","name":"BatchMetadataUpdate","inputs":[{"name":"_fromTokenId","type":"uint256","indexed":false,"internalType":"uint256"},{"name":"_toTokenId","type":"uint256","indexed":false,"internalType":"uint256"}],"anonymous":false},{"type":"event","name":"MetadataUpdate","inputs":[{"name":"_tokenId","type":"uint256","indexed":false,"internalType":"uint256"}],"anonymous":false},{"type":"event","name":"OwnershipTransferred","inputs":[{"name":"previousOwner","type":"address","indexed":true,"internalType":"address"},{"name":"newOwner","type":"address","indexed":true,"internalType":"address"}],"anonymous":false},{"type":"event","name":"Transfer","inputs":[{"name":"from","type":"address","indexed":true,"internalType":"address"},{"name":"to","type":"address","indexed":true,"internalType":"address"},{"name":"tokenId","type":"uint256","indexed":true,"internalType":"uint256"}],"anonymous":false},{"type":"error","name":"ERC721IncorrectOwner","inputs":[{"name":"sender","type":"address","internalType":"address"},{"name":"tokenId","type":"uint256","internalType":"uint256"},{"name":"owner","type":"address","internalType":"address"}]},{"type":"error","name":"ERC721InsufficientApproval","inputs":[{"name":"operator","type":"address","internalType":"address"},{"name":"tokenId","type":"uint256","internalType":"uint256"}]},{"type":"error","name":"ERC721InvalidApprover","inputs":[{"name":"approver","type":"address","internalType":"address"}]},{"type":"error","name":"ERC721InvalidOperator","inputs":[{"name":"operator","type":"address","internalType":"address"}]},{"type":"error","name":"ERC721InvalidOwner","inputs":[{"name":"owner","type":"address","internalType":"address"}]},{"type":"error","name":"ERC721InvalidReceiver","inputs":[{"name":"receiver","type":"address","internalType":"address"}]},{"type":"error","name":"ERC721InvalidSender","inputs":[{"name":"sender","type":"address","internalType":"address"}]},{"type":"error","name":"ERC721NonexistentToken","inputs":[{"name":"tokenId","type":"uint256","internalType":"uint256"}]},{"type":"error","name":"OwnableInvalidOwner","inputs":[{"name":"owner","type":"address","internalType":"address"}]},{"type":"error","name":"OwnableUnauthorizedAccount","inputs":[{"name":"account","type":"address","internalType":"address"}]}],"bytecode":{"object":"0x608060405234801561001057600080fd5b506040516116e23803806116e283398101604081905261002f9161012b565b80604051806040016040528060118152602001704d6174656d61746573736145524337323160781b815250604051806040016040528060098152602001684d544d45524337323160b81b815250816000908161008b91906101fa565b50600161009882826101fa565b5050506001600160a01b0381166100c957604051631e4fbdf760e01b81526000600482015260240160405180910390fd5b6100d2816100d9565b50506102b8565b600780546001600160a01b038381166001600160a01b0319831681179093556040519116919082907f8be0079c531659141344cd1fd0a4f28419497f9722a3daafe3b4186f6b6457e090600090a35050565b60006020828403121561013d57600080fd5b81516001600160a01b038116811461015457600080fd5b9392505050565b634e487b7160e01b600052604160045260246000fd5b600181811c9082168061018557607f821691505b6020821081036101a557634e487b7160e01b600052602260045260246000fd5b50919050565b601f8211156101f557806000526020600020601f840160051c810160208510156101d25750805b601f840160051c820191505b818110156101f257600081556001016101de565b50505b505050565b81516001600160401b038111156102135761021361015b565b610227816102218454610171565b846101ab565b6020601f82116001811461025b57600083156102435750848201515b600019600385901b1c1916600184901b1784556101f2565b600084815260208120601f198516915b8281101561028b578785015182556020948501946001909201910161026b565b50848210156102a95786840151600019600387901b60f8161c191681555b50505050600190811b01905550565b61141b806102c76000396000f3fe608060405234801561001057600080fd5b50600436106101165760003560e01c80638da5cb5b116100a2578063b88d4fde11610071578063b88d4fde14610239578063c87b56dd1461024c578063cd279c7c1461025f578063e985e9c514610272578063f2fde38b1461028557600080fd5b80638da5cb5b146101fa57806395d89b411461020b578063a144819414610213578063a22cb4651461022657600080fd5b806323b872dd116100e957806323b872dd1461019857806342842e0e146101ab5780636352211e146101be57806370a08231146101d1578063715018a6146101f257600080fd5b806301ffc9a71461011b57806306fdde0314610143578063081812fc14610158578063095ea7b314610183575b600080fd5b61012e610129366004610eff565b610298565b60405190151581526020015b60405180910390f35b61014b6102c3565b60405161013a9190610f6c565b61016b610166366004610f7f565b610355565b6040516001600160a01b03909116815260200161013a565b610196610191366004610fb4565b61037e565b005b6101966101a6366004610fde565b61038d565b6101966101b9366004610fde565b61041d565b61016b6101cc366004610f7f565b61043d565b6101e46101df36600461101b565b610448565b60405190815260200161013a565b610196610490565b6007546001600160a01b031661016b565b61014b6104a4565b610196610221366004610fb4565b6104b3565b610196610234366004611036565b6104c5565b610196610247366004611102565b6104d0565b61014b61025a366004610f7f565b6104e7565b61019661026d36600461117e565b6105f8565b61012e6102803660046111e9565b610614565b61019661029336600461101b565b610642565b60006001600160e01b03198216632483248360e11b14806102bd57506102bd82610680565b92915050565b6060600080546102d29061121c565b80601f01602080910402602001604051908101604052809291908181526020018280546102fe9061121c565b801561034b5780601f106103205761010080835404028352916020019161034b565b820191906000526020600020905b81548152906001019060200180831161032e57829003601f168201915b5050505050905090565b6000610360826106d0565b506000828152600460205260409020546001600160a01b03166102bd565b610389828233610709565b5050565b6001600160a01b0382166103bc57604051633250574960e11b8152600060048201526024015b60405180910390fd5b60006103c9838333610716565b9050836001600160a01b0316816001600160a01b031614610417576040516364283d7b60e01b81526001600160a01b03808616600483015260248201849052821660448201526064016103b3565b50505050565b610438838383604051806020016040528060008152506104d0565b505050565b60006102bd826106d0565b60006001600160a01b038216610474576040516322718ad960e21b8152600060048201526024016103b3565b506001600160a01b031660009081526003602052604090205490565b61049861080f565b6104a2600061083c565b565b6060600180546102d29061121c565b6104bb61080f565b610389828261088e565b6103893383836108a8565b6104db84848461038d565b61041784848484610947565b60606104f2826106d0565b506000828152600660205260408120805461050c9061121c565b80601f01602080910402602001604051908101604052809291908181526020018280546105389061121c565b80156105855780601f1061055a57610100808354040283529160200191610585565b820191906000526020600020905b81548152906001019060200180831161056857829003601f168201915b5050505050905060006105a360408051602081019091526000815290565b905080516000036105b5575092915050565b8151156105e75780826040516020016105cf929190611256565b60405160208183030381529060405292505050919050565b6105f084610a70565b949350505050565b61060061080f565b61060a838361088e565b6104388282610ae5565b6001600160a01b03918216600090815260056020908152604080832093909416825291909152205460ff1690565b61064a61080f565b6001600160a01b03811661067457604051631e4fbdf760e01b8152600060048201526024016103b3565b61067d8161083c565b50565b60006001600160e01b031982166380ac58cd60e01b14806106b157506001600160e01b03198216635b5e139f60e01b145b806102bd57506301ffc9a760e01b6001600160e01b03198316146102bd565b6000818152600260205260408120546001600160a01b0316806102bd57604051637e27328960e01b8152600481018490526024016103b3565b6104388383836001610b35565b6000828152600260205260408120546001600160a01b039081169083161561074357610743818486610c3b565b6001600160a01b0381161561078157610760600085600080610b35565b6001600160a01b038116600090815260036020526040902080546000190190555b6001600160a01b038516156107b0576001600160a01b0385166000908152600360205260409020805460010190555b60008481526002602052604080822080546001600160a01b0319166001600160a01b0389811691821790925591518793918516917fddf252ad1be2c89b69c2b068fc378daa952ba7f163c4a11628f55a4df523b3ef91a4949350505050565b6007546001600160a01b031633146104a25760405163118cdaa760e01b81523360048201526024016103b3565b600780546001600160a01b038381166001600160a01b0319831681179093556040519116919082907f8be0079c531659141344cd1fd0a4f28419497f9722a3daafe3b4186f6b6457e090600090a35050565b610389828260405180602001604052806000815250610c9f565b6001600160a01b0382166108da57604051630b61174360e31b81526001600160a01b03831660048201526024016103b3565b6001600160a01b03838116600081815260056020908152604080832094871680845294825291829020805460ff191686151590811790915591519182527f17307eab39ab6107e8899845ad3d59bd9653f200f220920489ca2b5937696c31910160405180910390a3505050565b6001600160a01b0383163b1561041757604051630a85bd0160e11b81526001600160a01b0384169063150b7a0290610989903390889087908790600401611285565b6020604051808303816000875af19250505080156109c4575060408051601f3d908101601f191682019092526109c1918101906112c2565b60015b610a2d573d8080156109f2576040519150601f19603f3d011682016040523d82523d6000602084013e6109f7565b606091505b508051600003610a2557604051633250574960e11b81526001600160a01b03851660048201526024016103b3565b805181602001fd5b6001600160e01b03198116630a85bd0160e11b14610a6957604051633250574960e11b81526001600160a01b03851660048201526024016103b3565b5050505050565b6060610a7b826106d0565b506000610a9360408051602081019091526000815290565b90506000815111610ab35760405180602001604052806000815250610ade565b80610abd84610cb6565b604051602001610ace929190611256565b6040516020818303038152906040525b9392505050565b6000828152600660205260409020610afd8282611326565b506040518281527ff8e1a15aba9398e019f0b49df1a4fde98ee17ae345cb5f6b5e2c27f5033e8ce79060200160405180910390a15050565b8080610b4957506001600160a01b03821615155b15610c0b576000610b59846106d0565b90506001600160a01b03831615801590610b855750826001600160a01b0316816001600160a01b031614155b8015610b985750610b968184610614565b155b15610bc15760405163a9fbf51f60e01b81526001600160a01b03841660048201526024016103b3565b8115610c095783856001600160a01b0316826001600160a01b03167f8c5be1e5ebec7d5bd14f71427d1e84f3dd0314c0f7b2291e5b200ac8c7c3b92560405160405180910390a45b505b5050600090815260046020526040902080546001600160a01b0319166001600160a01b0392909216919091179055565b610c46838383610d49565b610438576001600160a01b038316610c7457604051637e27328960e01b8152600481018290526024016103b3565b60405163177e802f60e01b81526001600160a01b0383166004820152602481018290526044016103b3565b610ca98383610dac565b6104386000848484610947565b60606000610cc383610e11565b600101905060008167ffffffffffffffff811115610ce357610ce3611072565b6040519080825280601f01601f191660200182016040528015610d0d576020820181803683370190505b5090508181016020015b600019016f181899199a1a9b1b9c1cb0b131b232b360811b600a86061a8153600a8504945084610d1757509392505050565b60006001600160a01b038316158015906105f05750826001600160a01b0316846001600160a01b03161480610d835750610d838484610614565b806105f05750506000908152600460205260409020546001600160a01b03908116911614919050565b6001600160a01b038216610dd657604051633250574960e11b8152600060048201526024016103b3565b6000610de483836000610716565b90506001600160a01b03811615610438576040516339e3563760e11b8152600060048201526024016103b3565b60008072184f03e93ff9f4daa797ed6e38ed64bf6a1f0160401b8310610e505772184f03e93ff9f4daa797ed6e38ed64bf6a1f0160401b830492506040015b6d04ee2d6d415b85acef81000000008310610e7c576d04ee2d6d415b85acef8100000000830492506020015b662386f26fc100008310610e9a57662386f26fc10000830492506010015b6305f5e1008310610eb2576305f5e100830492506008015b6127108310610ec657612710830492506004015b60648310610ed8576064830492506002015b600a83106102bd5760010192915050565b6001600160e01b03198116811461067d57600080fd5b600060208284031215610f1157600080fd5b8135610ade81610ee9565b60005b83811015610f37578181015183820152602001610f1f565b50506000910152565b60008151808452610f58816020860160208601610f1c565b601f01601f19169290920160200192915050565b602081526000610ade6020830184610f40565b600060208284031215610f9157600080fd5b5035919050565b80356001600160a01b0381168114610faf57600080fd5b919050565b60008060408385031215610fc757600080fd5b610fd083610f98565b946020939093013593505050565b600080600060608486031215610ff357600080fd5b610ffc84610f98565b925061100a60208501610f98565b929592945050506040919091013590565b60006020828403121561102d57600080fd5b610ade82610f98565b6000806040838503121561104957600080fd5b61105283610f98565b91506020830135801515811461106757600080fd5b809150509250929050565b634e487b7160e01b600052604160045260246000fd5b60008067ffffffffffffffff8411156110a3576110a3611072565b50604051601f19601f85018116603f0116810181811067ffffffffffffffff821117156110d2576110d2611072565b6040528381529050808284018510156110ea57600080fd5b83836020830137600060208583010152509392505050565b6000806000806080858703121561111857600080fd5b61112185610f98565b935061112f60208601610f98565b925060408501359150606085013567ffffffffffffffff81111561115257600080fd5b8501601f8101871361116357600080fd5b61117287823560208401611088565b91505092959194509250565b60008060006060848603121561119357600080fd5b61119c84610f98565b925060208401359150604084013567ffffffffffffffff8111156111bf57600080fd5b8401601f810186136111d057600080fd5b6111df86823560208401611088565b9150509250925092565b600080604083850312156111fc57600080fd5b61120583610f98565b915061121360208401610f98565b90509250929050565b600181811c9082168061123057607f821691505b60208210810361125057634e487b7160e01b600052602260045260246000fd5b50919050565b60008351611268818460208801610f1c565b83519083019061127c818360208801610f1c565b01949350505050565b6001600160a01b03858116825284166020820152604081018390526080606082018190526000906112b890830184610f40565b9695505050505050565b6000602082840312156112d457600080fd5b8151610ade81610ee9565b601f82111561043857806000526020600020601f840160051c810160208510156113065750805b601f840160051c820191505b81811015610a695760008155600101611312565b815167ffffffffffffffff81111561134057611340611072565b6113548161134e845461121c565b846112df565b6020601f82116001811461138857600083156113705750848201515b600019600385901b1c1916600184901b178455610a69565b600084815260208120601f198516915b828110156113b85787850151825560209485019460019092019101611398565b50848210156113d65786840151600019600387901b60f8161c191681555b50505050600190811b0190555056fea264697066735822122085475640f51a79976a591da82f306f51237a8250bb64f25ef28c23b23c9f489964736f6c634300081b0033","linkReferences":{}},"methodIdentifiers":{"approve(address,uint256)":"095ea7b3","balanceOf(address)":"70a08231","getApproved(uint256)":"081812fc","isApprovedForAll(address,address)":"e985e9c5","name()":"06fdde03","owner()":"8da5cb5b","ownerOf(uint256)":"6352211e","renounceOwnership()":"715018a6","safeMint(address,uint256)":"a1448194","safeMint(address,uint256,string)":"cd279c7c","safeTransferFrom(address,address,uint256)":"42842e0e","safeTransferFrom(address,address,uint256,bytes)":"b88d4fde","setApprovalForAll(address,bool)":"a22cb465","supportsInterface(bytes4)":"01ffc9a7","symbol()":"95d89b41","tokenURI(uint256)":"c87b56dd","transferFrom(address,address,uint256)":"23b872dd","transferOwnership(address)":"f2fde38b"},"id":3}